:1000000028C04CC0BEC24AC049C071C247C046C029
:1000100045C044C043C042C041C040C03FC00000D2
:10002000000036000000000037000000000038002B
:10003000020202020202020202020102040810206D
:1000400020041008010200000400000000009E04CB
:10005000070511241FBECFE5D2E0DEBFCDBF21E0F2
:10006000A0EBB0E001C01D92A032B207E1F710E0B2
:10007000A0E6B0E0E4EDFEE002C005900D92A03BEA
:10008000B107D9F710E0C8E2D0E003C02197FE0124
:100090001CD5C732D107D1F7ECD210C7B1CF90E051
:1000A000FC01EC5BFF4F3491FC01E65CFF4F2491B7
:1000B000FC01E05DFF4FE491EE23B9F0332329F01A
:1000C000323001F198F43130C9F0F0E0EE0FFF1F4B
:1000D000E65DFF4FA591B4918FB7F894EC91611153
:1000E00014C020952E232C938FBF0895333011F028
:1000F000343059F78CB58F7D8CBDE7CF8AB58F77BB
:100100008ABDE3CF8AB58F7DFBCF2E2BECCFCF936B
:10011000DF9390E0FC01E65CFF4F2491805D9F4FF0
:10012000FC0184918823D1F090E0880F991FFC0195
:10013000EC5DFF4FA591B491FC01E65DFF4FC591C9
:10014000D49161110EC09FB7F8948C91E22FE09585
:100150008E238C932881E223E8839FBFDF91CF9188
:1001600008958FB7F894EC91E22BEC938FBFF6CF04
:10017000AF92BF92CF92DF92EF92FF920F931F93B5
:10018000CF93DF936C017B018B01040F151FEB01F3
:100190005E01AE18BF08C017D10759F06991D601AA
:1001A000ED91FC910190F081E02DC6010995892B1C
:1001B00079F7C501DF91CF911F910F91FF90EF90DB
:1001C000DF90CF90BF90AF9008952091F2003091D2
:1001D000F3002817390771F49091F0008091F10035
:1001E000981741F0E091F000F0E0E055FF4F80817A
:1001F00090E008958FEF9FEF08950895EF92FF929A
:100200000F931F93CF93DF93DC015C96ED90FC90EE
:100210005D97E114F10479F481E090E013969C93EA
:100220008E93129790E080E0DF91CF911F910F9114
:10023000FF90EF9008955196ED91FC915297509652
:100240008C915097982F90950FB75E962C915E9752
:10025000122F127021FD6095F8942081112319F15D
:10026000282B2083E7012197F1F728E0462F50E063
:10027000308160FF1AC0382B3083E7012197F1F7F6
:10028000BA0175956795215089F7112381F0808116
:10029000892380830FBF5C968D919C910197F1F724
:1002A00081E090E0C1CF2923DCCF3923E5CF9081D5
:1002B000892BEFCF2091F2003091F30028173907F6
:1002C00061F48091F1002091F00090E0805C9F4FFC
:1002D000821B91098F739927089590E080E008951B
:1002E0002091F2003091F30028173907B9F490916A
:1002F000F0008091F100981789F0E091F000F0E0B3
:10030000E055FF4F80812091F00030E02F5F3F4F9C
:100310002F7333272093F00090E008958FEF9FEF25
:1003200008952FB7F8948091F9009091FA00A09168
:10033000FB00B091FC002FBF809305019093060154
:10034000A0930701B09308018DEF90E0C9DF97FFFC
:1003500026C02FB7F8948091F9009091FA00A091EF
:10036000FB00B091FC002FBF4091050150910601A8
:100370006091070170910801841B950BA60BB70BC8
:1003800040910101509102016091030170910401BB
:1003900084179507A607B707B8F28FEF9FEF089568
:1003A00090E080E00895CF93DF93FC01019000205E
:1003B000E9F73197AF01481B590BBC018DEF90E075
:1003C000D7DEEC0142E050E068E770E08DEF90E0AE
:1003D000CFDE8C0F9D1FDF91CF910895EF92FF929A
:1003E0000F931F93CF93DF93FC0100811181FB01D9
:1003F000C081D181F80181918F018823A9F0082E55
:10040000000C990B43D57C018991082E000C990BA7
:100410003DD5E816F90671F380E0DF91CF911F9189
:100420000F91FF90EF90089581E0F7CFFC0180815C
:100430009181009709F0EBC308950F931F93CF9319
:10044000DF93EC0188819981009759F02A813B81E3
:100450002617370730F081E0DF91CF911F910F9180
:1004600008958B016F5F7F4F5BD4009759F099839C
:1004700088831B830A832C813D81232B61F7FC0138
:100480001082E9CF80E0E8CFEF92FF920F931F93A5
:10049000CF93DF93EC017B01FB0101900020E9F792
:1004A00031978F01061B170BB801C7DF28813981EF
:1004B000811112C02115310511F0C901A8D319828B
:1004C00018821D821C821B821A82DF91CF911F919C
:1004D0000F91FF90EF9008951D830C83B701C90120
:1004E000DF91CF911F910F91FF90EF90E0C41F9289
:1004F0000F920FB60F9211242F933F938F939F93D8
:10050000AF93BF938091F9009091FA00A091FB0006
:10051000B091FC003091F80026E0230F2D3758F5FC
:100520000296A11DB11D2093F8008093F9009093CD
:10053000FA00A093FB00B093FC008091F40090912E
:10054000F500A091F600B091F7000196A11DB11D34
:100550008093F4009093F500A093F600B093F70019
:10056000BF91AF919F918F913F912F910F900FBEAF
:100570000F901F90189529E8230F0396A11DB11D18
:10058000D2CF1F920F920FB60F9211242F933F9349
:100590004F935F936F937F938F939F93AF93BF938B
:1005A000EF93FF93E091F200F091F300309749F060
:1005B000A685B7858585968D91FF14C09C9189236A
:1005C000A1F4FF91EF91BF91AF919F918F917F9196
:1005D0006F915F914F913F912F910F900FBE0F90B0
:1005E0001F9018959C91892361F7A389B4899C91E8
:1005F0008589809589238C93868997890197F1F75E
:10060000608D718DA685B785558538E020E0CB01DA
:100610000197F1F7822F90E095958795282F4C91BF
:10062000452309F02068315091F7868D81FD209592
:100630008091F10090E001968F7399273091F0003E
:10064000381799F0A091F100B0E0A055BF4F2C935E
:100650008093F100828D938D0197F1F7A389B4897E
:100660008C919589892B8C93ACCF868D8160868FF8
:10067000F1CFCF93DF93CDB7DEB72C970FB6F894B9
:10068000DEBF0FBECDBF78948AB582608ABD8AB5C1
:1006900081608ABD83B7826083BF83B7816083BF77
:1006A00089B7826089BF80B7826080BF80B7816070
:1006B00080BF329A319A3098379A8CB580648CBD5D
:1006C00061E080E024DD1092180110921701109271
:1006D00016011092150110921401109213018DEC65
:1006E00090E090931A0180931901309109013530FF
:1006F00020F545E550E050931401409313014BEC75
:1007000050E0509316014093150140E950E050939A
:100710001801409317012BB720622BBF45E350E02F
:10072000509311014093100121E001C0220F3A952E
:10073000EAF7209312010197F1F780911701909148
:100740001801892B49F1E091F200F091F30080E06B
:10075000ED3FF80709F1309739F0A389B4899C91EE
:100760008589809589238C9380911B018E7F80934E
:100770001B011092F1001092F0008DEF90E0909329
:10078000F3008093F200E0911001F091110180815B
:1007900090911201892B80838BE790E004DE80E04A
:1007A000A82E80E0B82E8DEF90E084DD892B09F42F
:1007B00061C018861F821A8619861C861B866AE706
:1007C00070E0CE01079660DEACDD97FD1CC08A307C
:1007D0009105C9F089831A820B851C850F5F1F4F15
:1007E000B801CE01079629DE882371F32F81388561
:1007F0008B859C85BE016F5F7F4F820F931F57D300
:100800001C870B87E1CFCF80D884C114D10431F08D
:100810000B851C8576010115110599F51A8219823F
:100820001C821B821E821D826CE970E0CE01019643
:100830002BDE8B859C852D813E8110E082179307EE
:1008400051F411E0892B39F0BE016F5F7F4FCE016B
:100850000796C4DD182FCE010196E8DD112309F4B7
:1008600043C061E080E01BDC88E990E09CDDCE01C4
:100870000796DCDDA114B10409F495CFC1DB93CF59
:1008800074014701EFEF8E1A9E0AF7018081082E4E
:10089000000C990BD8D0892B99F7015011090C0D38
:1008A0001D1DF8018081082E000C990BCCD0892BDE
:1008B00031F00E151F0518F001501109F2CFA801F3
:1008C0004F5F5F4F4E195F095C874B87CE14DF0483
:1008D00018F4B701C601E2D2EF81F8858B859C85BB
:1008E000E80FF91F10829ACF1A8219821C821B828C
:1008F0001E821D8263EA70E0CE010196C5DD8B8504
:100900009C852D813E818217930751F411E0892B3C
:1009100039F0BE016F5F7F4FCE0107965FDD182F64
:10092000CE01019683DD87EA90E0112309F49ECF82
:1009300060E080E0B4DB8FE990E098CF1092000196
:100940001092FF0088EE93E0A0E0B0E080930101F8
:1009500090930201A0930301B09304018AE690E012
:100960009093FE008093FD001092140110921301E9
:100970001092160110921501109218011092170191
:1009800010921A011092190160911B016E7F6D7F08
:1009900060931B016695617081E0682782E07FDBD0
:1009A00061E082E0B4DBECE3F0E0E491E0930D0180
:1009B000E2E3F0E0E491F0E0EE0FFF1FE65DFF4FB1
:1009C0008591949190930F0180930E0160E083E0F4
:1009D0009EDB80911B0181FD03C061E083E05FDB52
:1009E00083E080930901EDE3F0E0E491E0930A01F4
:1009F000E3E3F0E0E491F0E0EE0FFF1FE25EFF4F73
:100A00008591949190930C0180930B0108958AE64F
:100A100090E09093FE008093FD008091F200909111
:100A2000F3008D5F904071F4E0911001F09111019D
:100A30009081809112018095892380831092F30028
:100A40001092F2000895911106C0803219F0895079
:100A50008550D0F708959927882708952F923F92BF
:100A60004F925F926F927F928F929F92AF92BF92BE
:100A7000CF92DF92EF92FF920F931F93CF93DF936A
:100A8000CDB7DEB7CA1BDB0B0FB6F894DEBF0FBEC7
:100A9000CDBF09942A88398848885F846E847D8414
:100AA0008C849B84AA84B984C884DF80EE80FD8016
:100AB0000C811B81AA81B981CE0FD11D0FB6F8948C
:100AC000DEBF0FBECDBFED010895EE0FFF1F0590F5
:100AD000F491E02D09940F931F93CF93DF9382300D
:100AE000910510F482E090E0E0911E01F0911F0169
:100AF00030E020E0B0E0A0E0309799F42115310516
:100B000009F44AC0281B390B24303105D8F58A81F5
:100B10009B816115710589F1FB0193838283FE013D
:100B200011C0408151810281138148175907E0F0BB
:100B30004817590799F4109761F012960C93129781
:100B400013961C933296CF01DF91CF911F910F9195
:100B5000089500931E0110931F01F4CF2115310554
:100B600051F04217530738F0A901DB019A01BD018A
:100B7000DF01F801C1CFEF01F9CF90931F018093FE
:100B80001E01CDCFFE01E20FF31F819391932250FE
:100B9000310939832883D7CF20911C0130911D0161
:100BA000232B41F4209162003091630030931D01AA
:100BB00020931C01209160003091610021153105C6
:100BC00041F42DB73EB74091640050916500241B5D
:100BD000350BE0911C01F0911D01E217F307A0F421
:100BE0002E1B3F0B2817390778F0AC014E5F5F4F83
:100BF0002417350748F04E0F5F1F50931D01409397
:100C00001C01819391939FCFF0E0E0E09CCFCF93C4
:100C1000DF930097E9F0FC01329713821282A091D2
:100C20001E01B0911F01ED0130E020E01097A1F40A
:100C300020813181820F931F20911C0130911D0171
:100C40002817390709F061C0F0931D01E0931C01DA
:100C5000DF91CF910895EA01CE17DF07E8F54A81C9
:100C60005B819E0141155105B1F7E901FB83EA83E0
:100C700049915991C40FD51FEC17FD0761F480818C
:100C800091810296840F951FE9019983888382815F
:100C900093819B838A83F0E0E0E012968D919C9192
:100CA00013970097B9F52D913C911197CD010296BC
:100CB000820F931F20911C0130911D0128173907C5
:100CC00039F6309751F510921F0110921E01B09322
:100CD0001D01A0931C01BCCFD383C28340815181ED
:100CE000840F951FC817D90761F44E5F5F4F888145
:100CF0009981480F591F518340838A819B81938337
:100D000082832115310509F0B0CFF0931F01E093E4
:100D10001E019ECFFD01DC01C0CF13821282D7CF0E
:100D2000B0E0A0E0E5E9F6E09BCE8C01009741F44D
:100D3000CB01D1DE8C01C801CDB7DEB7E0E1ACCE8E
:100D4000FC01E60FF71F9C0122503109E217F3075F
:100D500008F499C0D901CD91DC911197C617D70736
:100D600090F0C530D10538F3CE0104978617970768
:100D700010F3C61BD70B2297C193D1936D937C932D
:100D8000CF0145DFD8CF5B01AC1ABD0A4C018C0EF8
:100D90009D1EA0911E01B0911F01512C412CF12CE0
:100DA000E12C109731F580911C0190911D0188155F
:100DB000990509F05CC04616570608F058C08091A6
:100DC000600090916100009741F48DB79EB740910B
:100DD000640050916500841B950BE817F90708F033
:100DE00052C0F0931D01E0931C01F90171836083EF
:100DF000A2CF8D919C91119712966C901297139699
:100E00007C901397A815B90559F56C0142E0C40E02
:100E1000D11CCA14DB0420F1AC014A195B09DA01C8
:100E20001296159780F06282738251834083D901B4
:100E30006D937C93E114F10471F0D7011396FC9348
:100E4000EE93129778CF22968C0F9D1FF901918314
:100E50008083F301EFCFF0931F01E0931E016BCF6E
:100E60004816590608F42C017D01D3019ACFCB0115
:100E700032DE7C01009739F0AE01B8010FD0C80115
:100E8000C6DE870158CF10E000E055CF91110895DC
:100E900081548A5108F4805E855A0895FB01DC0173
:100EA00002C001900D9241505040D8F70895FB01C7
:100EB000DC0101900D920020E1F7089510E0C8E2F6
:100EC000D0E003C0FE0101DE2196C932D107D1F77F
:040ED000F894FFCFC4
:100ED40000002001800000000000FE00B800D001E6
:100EE400FD005A017001E5000D0A00415474696E59
:100EF40079383520526561647920284C4544204373
:100F04006F6E74726F6C29004C4544204F4E004C38
:100F14004544204F464600496E76616C6964000082
:00000001FF
